S011000049525F4578616D706C652E7333371D
S3150800000000100020BD0400086B4A00086B4A00086F
S315080000106B4A00086B4A00086B4A00086B4A0008DE
S315080000206B4A00086B4A00086B4A00086B4A0008CE
S315080000306B4A00086B4A00086B4A00086B4A0008BE
S315080000406B4A00086B4A00086B4A00086B4A0008AE
S315080000506B4A00086B4A00086B4A00086B4A00089E
S315080000606B4A00086B4A00086B4A0008050400083A
S31508000070634A00086B4A00086B4A00086B4A000886
S315080000806B4A00086B4A00086B4A00086B4A00086E
S315080000906B4A00084D0D00086B4A00086B4A0008B9
S315080000A06B4A00086B4A00086B4A00086B4A00084E
S315080000B06B4A00086B4A00086B4A00086B4A00083E
S315080000C06B4A00086B4A00086B4A00086B4A00082E
S315080000D06B4A00086B4A00086B4A00086B4A00081E
S315080000E06B4A00086B4A00086B4A00086B4A00080E
S315080000F06B4A00086B4A00086B4A00086B4A0008FE
S315080001006B4A00086B4A00086B4A00086B4A0008ED
S315080001106B4A00086B4A00086B4A00086B4A0008DD
S315080001206B4A00086B4A00086B4A00086B4A0008CD
S315080001306B4A00086B4A00086B4A00086B4A0008BD
S315080001406B4A00086B4A00086B4A0008074E00080D
S315080001506B4A00086B4A00086B4A00086B4A00089D
S315080001606B4A00086B4A00086B4A00086B4A00088D
S3150800017010B5054C237833B9044B13B1044800E095
S3150800018000BF0123237010BD94100020000000005A
S315080001904C5B000808B5034B1BB10349034800E054
S315080001A000BF08BD00000000981000204C5B000846
S315080001B0A3F5803A704700BF174B002B08BF134BB7
S315080001C09D46FFF7F5FF00218B460F461348144A54
S315080001D0121A04F05AFE0E4B002B00D098470D4B0E
S315080001E0002B00D098470020002104000D000D4880
S315080001F0002802D00C4800E000BF03F0C3FC200032
S31508000200290004F005FC03F0A9FC00BF0000080063
S3150800021000000000000000000010002094100020DC
S315080002200C13002000000000000000001FB503208A
S3150800023000F008F960B1104C1049206804F042FD3E
S3150800024004F011FC04F010FC0D49206804F03AFD96
S3150800025049F27043002469460A4800938DF8044021
S3150800026000F078FA642302A9074802938DF80C4037
S3150800027000F070FA04B010BD381100204051000893
S3150800028045510008001000200810002008B532214A
S31508000290074800F02DFB064800F0FEFA054806213F
S315080002A000F026FBBDE80840024800F0F5BA00BF9A
S315080002B0001000200810002010B5274C01F0BCFAE9
S315080002C001F05EFB236F23F0070343F00303236764
S315080002D004F048FC214B00209B6ADB015EBF4FF40B
S315080002E080321F4B9A62D4F8203123F0070343F07B
S315080002F00203C4F82031D4F8283123F0070343F069
S315080003000203C4F82831D4F8403123F0030343F03C
S315080003100103C4F84031D4F8603123F0030343F0F5
S315080003200103C4F86031D4F8403223F0030343F0E4
S315080003300103C4F84032D4F8003223F0070343F02F
S315080003400103C4F80032D4F8083223F0070343F057
S315080003500103C4F8083210BD008000500040005A5E
S315080003600060005A30B5214CA1B00CAD0FCC0FC5BA
S3150800037094E80F0085E80F002C22002115A804F048
S3150800038084FD1B4B012514935623169305231993B5
S315080003900623103494E807001B9305AC02AB83E8E8
S315080003A0070084E807001022002108A88DF8555098
S315080003B004F06BFD40F60B43ADF820300D4B21469B
S315080003C0099320230A930C4B0C4800930CAA14ABF0
S315080003D08DF82D5002F07EFB044618B16E210848B0
S315080003E004F04CFB204621B030BD00BF9C510008EC
S315080003F00000015BDE120020B01000202011002052
S315080004006B510008014804F0A4BC00BF201100206D
S315080004101FB549F2704300246946084800938DF8D1
S31508000420044000F097F9642302A9054802938DF861
S315080004300C4000F08FF904B010BD00BF001000207A
S31508000440081000200B4B02461B788BB10A4B1B7811
S31508000450834234BF00200120084B1B783BB1084B70
S315080004601B7843FA02F212F0010F08BF002070470A
S315080004700120F1E78810002089100020FE120020D4
S315080004808A100020012208B5074B1A700022074B74
S315080004901A700422064B1A701F22064B1A7002F0B5
S315080004A00DFB054B186008BD88100020FE120020C1
S315080004B0891000208A1000203811002008B500F0A5
S315080004C02DF8124B12498B4212D30020114B1249B8
S315080004D08B4218D3FFF770FE186850F82240586808
S315080004E040F82240013298688242F5D30C33EAE795
S315080004F00022F8E71C6844F8220001325C68A24230
S31508000500F8D30833E4E70022F8E700BF545B000895
S31508000510605B0008605B0008605B00084FF4804180
S315080005204FF0FF30114B124A10B59A60D3F8882065
S3150800053042F47002C3F888200E4A91660E4901F506
S31508000540005210660D4850660220C3F8D000BFF36B
S315080005504F8FBFF36F8F01244FF440330848C0F81C
S315080005608041D36004600B6110BD00BF00ED00E060
S31508000570000000080090005000800044F7FF370094
S3150800058000E100E0014B1868704700BF1410002016
S31508000590084B1B6F03F00703022B04D0032B05D06F
S315080005A0012B05D0FEE7044B18687047034BFBE7A1
S315080005B003487047008000501410002018100020CF
S315080005C0002D310108B5FFF7E3FF054B1B6FC3F399
S315080005D003330133B0FBF3F0024B186008BD00BFCC
S315080005E000800050101000200048704700B4C40472
S315080005F0014B1868704700BF181000200048704764
S31508000600002D31014FF0B4439868C0F304400C281C
S3150800061022D8DFE800F00921212121210717192115
S315080006201B1D1F000F4870479B6803F04073B3F10A
S31508000630807F13D0B3F1007F12D00B4A002B08BF7E
S315080006401046704709487047094870470948704777
S31508000650094870470948704700207047084870479E
S3150800066008487047405DC60000093D000024F400B4
S31508000670C0EA210180BA8C010048E801005A6202EA
S3150800068080841E0040420F00014B1868704700BF67
S315080006901C10002005490A681318054883428CBFB8
S315080006A04FF0FF320B601046704700BF2010002045
S315080006B00000042008B5114B984217D00DD8A3F5B1
S315080006C00043984214D003F58043984212D00C4850
S315080006D05B2104F0D3F9802008BD0A4B98420BD061
S315080006E003F580439842F2D12820F5E72620F3E760
S315080006F02420F1E72520EFE72720EDE70000055045
S31508000700C85100080040055008B5104B984216D04D
S3150800071003F58043984212D003F58043984211D0DE
S3150800072003F5804398420DD003F58043984209D0DB
S3150800073007484FF4307104F0A1F9002008BD4FF0C6
S31508000740FF30FBE74FF6FF70F8E700BF0080045064
S315080007506852000870B5044688B000680D46FFF771
S31508000760A9FF0121064600F015FE01213A2000F0F6
S3150800077011FE2B790422A179607901F09FFD0D22E3
S315080007800021684604F081FB03238DF80630012317
S315080007908DF8053002238DF801302B796A46591EEB
S315080007A04B424B41206821798DF80A3002F006F851
S315080007B02268314B9A4256D003F580439A4254D068
S315080007C003F580439A4252D003F580439A4250D0AB
S315080007D02A482B49A3F5BC33FC3B824218BF0B467B
S315080007E0A0796279217942EA004243F8212030460D
S315080007F000F0FCFD2D682668B0FBF5F0451E304676
S31508000800FFF782FF854204D940F2A2411D4804F051
S3150800081035F9336BDA0704D440F2A441194804F0D9
S315080008202DF9F561256826792846FFF76DFF2B6BAC
S31508000830DB0704D44FF44C71124804F01FF9102258
S3150800084005EB461500260DEB02003146AE6604F0B0
S315080008501CFB0123206804A98DF8103001F04AFF1B
S31508000860304608B070BD084BBAE7084BB8E7084BE6
S31508000870B6E7084BB4E700BF008004500080055077
S3150800088064C603506852000884C60350A4C60350C1
S31508000890C4C60350E4C6035001230179026811480F
S315080008A003FA01F1824216D000F5804082420DD04B
S315080008B00D4B9A4211D003F580439A420FD003F5A7
S315080008C080439A420CBF04234FF0FF33074AB433E0
S315080008D05B01D15070470023F8E70223F6E70323AC
S315080008E0F4E700BF008004500000055000C0035024
S315080008F070B504680679E569204669436425B1FB45
S31508000900F5F5FFF701FF854204D940F21331074890
S3150800091004F0B4F8236BDB0704D440F2153103481E
S3150800092004F0ACF804EB4614256770BD685200085D
S315080009302DE9F04F9A46564B85B01B7806460F466A
S315080009401546DDF83C909DF844B0DDF85080002B44
S3150800095000F08D80072A00F28C800E9B002B00F099
S315080009608880B9F1000F00F08480129BB3F5006F00
S315080009707FDC012802D1109B002B7AD0454B03EB74
S3150800098005131B7B002B76D0434C102200216846AA
S3150800099004F07BFA04EB45141022002F59D139468E
S315080009A0204604F072FA43F210036380BBF1000F8D
S315080009B003D1E37843F00303E370374A0E9B02EB57
S315080009C0451CCCE90193129B6901013BC3F30A005C
S315080009D09DF84C30012E03F003034FEA836343EA84
S315080009E0001E53582D48CDF800A000EA03004EEA31
S315080009F00003535041D113230CF1100ECCF80C30E0
S31508000A009CE80F008EE80F006FF00301DCF81C204D
S31508000A10109B61F39F02012FCCF81C20CCF81430F0
S31508000A2003D1CCF81890CCF804300027194A2901CC
S31508000A3002EB051342F80180159A28465A60694662
S31508000A4022469F605E7301F015FD384605B0BDE885
S31508000A50F08F0021204604F018FA4FF4447363809F
S31508000A60BBF1000FA9D1E37843F03003A4E70C48A3
S31508000A70ECE70C48EAE70C48E8E7B8F1000FD4D1F0
S31508000A809CF8023068F304138CF80230CDE700BFF7
S31508000A90FF1200203C110020BC1100200F80FFF33C
S31508000AA0028000F0018000F0078000F038B5124B94
S31508000AB005461B78DBB1E0B104F070F80F4A002355
S31508000AC01146147B54B92B6001251A0101EB031357
S31508000AD01D738C5004F068F8204638BD0133082B86
S31508000AE002F11002EDD104F05FF80548F5E7054874
S31508000AF0F3E70548F1E700BFFF1200203C1100208C
S31508000B00048000F0028000F0018000F013B504F0C4
S31508000B1045F800230B4A147B7CB90133082B02F1F4
S31508000B201002F8D1019001F01BFC074B01981C70CC
S31508000B3004F03AF8204602B010BD04F035F8034830
S31508000B40F9E700BF3C110020FF120020058000F0E5
S31508000B500D4B10B51B78044693B1072812D804F03C
S31508000B601DF80A4B03EB04131A7B2AB100241C73E5
S31508000B7004F01AF8204610BD04F016F80448FAE7FF
S31508000B800448F8E70448F6E7FF1200203C11002065
S31508000B90068000F0028000F0018000F0154B13B5C6
S31508000BA01868002301908DF8043003F0F7FF124B04
S31508000BB01C7824B103F0F8FF104802B010BD0122DA
S31508000BC01A7003F0F1FF0E4B01A81C731C7783F80B
S31508000BD02C4083F83C4083F84C4083F85C4083F80B
S31508000BE06C4083F87C4008238DF8073001F0F8FB49
S31508000BF02046E2E705530008FF120020038000F0B4
S31508000C003C1100200A4A08B512785AB107280BD8B1
S31508000C10084A02EB00131B7B43B1002101F0BEFB1F
S31508000C20002008BD0448FCE70448FAE70448F8E74A
S31508000C30FF1200203C110020028000F0018000F025
S31508000C40078000F00A4A08B512785AB107280BD867
S31508000C50084A02EB00131B7B43B1012101F09EFBFE
S31508000C60002008BD0448FCE70448FAE70448F8E70A
S31508000C70FF1200203C110020028000F0018000F0E5
S31508000C80078000F00A4A08B5127852B107280AD830
S31508000C90084A02EB00131B7B3BB101F06DFC0020F8
S31508000CA008BD0548FCE70548FAE70548F8E700BF28
S31508000CB0FF1200203C110020028000F0018000F0A5
S31508000CC0078000F00B4A10B512780C4662B1072867
S31508000CD00CD859B1084A02EB00131B7B43B101F04B
S31508000CE067FC2070002010BD0448FCE70448FAE7BA
S31508000CF00448F8E7FF1200203C110020028000F0AB
S31508000D00018000F0078000F00B4A10B512780C46F7
S31508000D1062B107280CD859B1084A02EB00131B7BAD
S31508000D2043B101F067FC2060002010BD0448FCE7D1
S31508000D300448FAE70448F8E7FF1200203C110020AF
S31508000D40028000F0018000F0078000F02DE9F843EA
S31508000D50174B1F6D5B6D1F4000D5FEE7012600256A
S31508000D60144CDFF85480DFF85490374217D02368C4
S31508000D70C8F850609BB1A168284601316268A16035
S31508000D809847637B012B0AD148B909EB45131A7BAF
S31508000D9060F341021A731A7F60F341021A7701352C
S31508000DA0082D4FEA460604F11004DED1BDE8F883A3
S31508000DB0000004503C11002000200450BC11002003
S31508000DC0044BD3F88420D206FBD4D3F88400C0F3AE
S31508000DD0811070470040005038B5124B0546D3F8CD
S31508000DE080300C4603F00303022B0BD0032B0DD0E7
S31508000DF0012B0FD1FFF7CCFB0E2305B1286004B1F8
S31508000E00236038BDFFF7FEFB0723F6E7FFF7BAFBBB
S31508000E100623F2E7044841F29B0103F02FFE002364
S31508000E201846EAE7008000500953000838B5194B00
S31508000E300546D3F820310C4603F00703013B052B82
S31508000E4020D8DFE803F0030B130F171BFFF79AFBF5
S31508000E50052305B1286004B1236038BDFFF7C8FB38
S31508000E600323F6E7FFF7CEFB0723F2E7FFF7C6FBF8
S31508000E700223EEE7FFF786FB0623EAE7FFF7B8FB50
S31508000E800423E6E7044841F2141103F0F7FD0023B2
S31508000E901846DEE7008000500953000838B5194B9C
S31508000EA00546D3F828310C4603F00703013B052B0A
S31508000EB020D8DFE803F003131B0F0B17FFF762FBBD
S31508000EC0052305B1286004B1236038BDFFF75AFB36
S31508000ED00623F6E7FFF796FB0723F2E7FFF788FBFB
S31508000EE00323EEE7FFF784FB0423EAE7FFF786FB15
S31508000EF00223E6E704484FF4726103F0BFFD0023BE
S31508000F001846DEE70080005009530008F7B50027A9
S31508000F10144B0197D3F88041064604F00304022CCB
S31508000F200D4614D0032C0DD0012C14D1394601A836
S31508000F30FFF77CFF10240EB1019B336005B12C60CE
S31508000F4003B0F0BDFFF75EFB07240190F3E7FFF758
S31508000F5055FB0190EFE741F26121034803F08EFD4E
S31508000F603C46E8E70080005009530008002337B5DF
S31508000F700193184B0546D3F820320C4603F00703B5
S31508000F80013B032B1ED8DFE803F0020E13180021DD
S31508000F9001A8FFF783FF12230DB1019A2A6004B155
S31508000FA0236003B030BDFFF72DFB07230190F3E75D
S31508000FB003F05EFD0A230190EEE7FFF765FB0923C0
S31508000FC00190E9E740F6DF61034803F057FD002387
S31508000FD0E2E700BF008000500953000838B5124BFD
S31508000FE00546D3F840310C4603F00303022B0BD019
S31508000FF0032B0DD0012B0FD103F03AFD0A2305B1BF
S31508001000286004B1236038BDFFF73EFB0923F6E7E5
S3150800101003F031FD0C23F2E7044841F2421103F0D4
S315080010202DFD00231846EAE7008000500953000802
S31508001030002337B50193184B0546D3F860320C46A2
S3150800104003F00703013B032B1FD8DFE803F0020E6A
S315080010501914002101A8FFF7E9FE10230DB1019A22
S315080010602A6004B1236003B030BD002101A8FFF750
S31508001070B5FF1123F2E7FFF7C5FA07230190EDE75D
S31508001080FFF7BCFA02230190E8E740F684710348AB
S3150800109003F0F4FC0023E1E7008000500953000840
S315080010A0002337B50193184B0546D3F894320C46FE
S315080010B003F00703013B032B1FD8DFE803F0020EFA
S315080010C01914002101A8FFF7B1FE10230DB1019AEA
S315080010D02A6004B1236003B030BD002101A8FFF7E0
S315080010E07DFF1123F2E7FFF78DFA07230190EDE75D
S315080010F0FFF784FA02230190E8E740F6B771034840
S3150800110003F0BCFC0023E1E7008000500953000807
S3150800111073B500240F4B0194D3F87032064603F0DA
S315080011200303012B0D4607D0022B11D040F6E271BE
S31508001130094803F0A3FC04E0214601A8FFF74EFF87
S3150800114011240EB1019B336005B12C6002B070BD4D
S315080011501524F6E7008000500953000838B5154BEA
S315080011600546D3F800320C4603F00703013B032B70
S3150800117018D8DFE803F0020A0E1203F079FC0A23F6
S3150800118005B1286004B1236038BDFFF77DFA09234D
S31508001190F6E703F070FC0C23F2E7FFF713FA0F23C8
S315080011A0800AEDE7044841F2173103F067FC002393
S315080011B01846E5E7008000500953000838B5154B76
S315080011C00546D3F808320C4603F00703013B032B08
S315080011D018D8DFE803F0020A0E1203F049FC0A23C6
S315080011E005B1286004B1236038BDFFF74DFA09231D
S315080011F0F6E703F040FC0C23F2E7FFF7E3F90F23C9
S31508001200800AEDE7044841F24B3103F037FC00232E
S315080012101846E5E7008000500953000838B5124B18
S315080012200546D3F840320C4603F00303022B0BD0D5
S31508001230032B0DD0012B0FD103F01AFC0A2305B19D
S31508001240286004B1236038BDFFF71EFA0923F6E7C4
S3150800125003F011FC0C23F2E7044841F2DA2103F00B
S315080012600DFC00231846EAE70080005009530008E1
S3150800127038B5124B0546D3F860310C4603F0030324
S31508001280022B0BD0032B0DD0012B0FD103F0F0FB53
S315080012900A2305B1286004B1236038BDFFF7F4F9C5
S315080012A00923F6E703F0E7FB0C23F2E7044841F2CB
S315080012B0701103F0E3FB00231846EAE700800050AC
S315080012C009530008B0F5207F10B52ED009D8B0F51F
S315080012D0007F24D003D868B1B0F5C07F0AD00024B7
S315080012E01BE0B0F5607FFAD1124BD3F88040C4F307
S315080012F0011412E00F4B1C6F230B13F00E0FC4F3EF
S3150800130003340AD0032C08D0072C06D00F2C04D09F
S315080013104FF41D71084803F0B1FB601C10BD054B66
S31508001320D3F89040C4F30464F7E7024B1C6FC4F388
S315080013308024F2E700800050095300084FF48032F9
S3150800134038B5104B04469A6600200D46FFF7BAFFDB
S3150800135041F671320C4B6043DC69DA635A6804F46F
S31508001360803422F440125DB9084988428CBF4FF494
S3150800137080100020104358600CB10022DA6338BD93
S315080013800349F2E70090005000000350005A620239
S31508001390002D310170B5440905460E460ED140F2BE
S315080013A01B310F4803F06AFB05F01F05AEB104F5C3
S315080013B08053012000FA05F51D6070BD012C08D088
S315080013C0022C08D040F22531054803F057FB0024CB
S315080013D0EAE7044CE8E7044CE6E704F50053E8E7D7
S315080013E0095300086480005068800050002130B519
S315080013F0802885B00446CDE9001100F09F8035D8D5
S315080014005E2846D85E2844D8DFE800F09E4343436A
S31508001410434343434343434343434343434343438E
S315080014204343434343434343434343439EAA9EAAFA
S31508001430B9B9B9B9B9AAC350D97450AAAAAA434323
S31508001440434343434343AAAAAA7CE3AA43434343E9
S31508001450434343434343434343B99E9E9EDE505012
S31508001460E88B61BE4343434343939E00B0F5B06F98
S3150800147000F08F8030D8B0F5207F71D00FD8B0F546
S31508001480C07F61D0B0F5007F61D0B0F5807F00F0F5
S3150800149085804FF48F61544803F0F0FA51E0B0F5B7
S315080014A0607F67D00DD8B0F5407FF2D1FFF78AF894
S315080014B004464FF42070FFF705FFB4FBF0F0400830
S315080014C03EE0B0F5806F5AD0B0F5A06FE1D10021AB
S315080014D06846FFF74BFD34E0B0F5106F74D016D8A8
S315080014E0B0F5E06F75D00AD8B0F5C06F67D0B0F523
S315080014F0D06FCED100216846FFF730FE21E0B0F567
S31508001500F06FC6D100216846FFF7B2FE19E0B0F5C4
S31508001510406F39D00AD8B0F5206F5FD0B0F5286F84
S31508001520B7D100216846FFF7F3FD0AE0B0F5486F2A
S31508001530AFD100216846FFF7B3FD02E0FFF728F8B0
S315080015400090009805B030BDFFF73CF8F8E7FFF7C4
S315080015501FF805462046FFF7B5FEB5FBF0F0EFE7A6
S31508001560FFF730F804464FF42070FFF7ABFEB4FBE4
S31508001570F0F0E5E701A8FFF72FFC019DEAE7002157
S315080015806846FFF753FCDCE700216846FFF786FC50
S31508001590D7E700216846FFF7B9FCD2E74FF0E0230A
S315080015A002911B695B0705D5FFF70CF80290029BB1
S315080015B00093C6E703A902A8FFF710FDF7E7002185
S315080015C06846FFF70BFDBCE700216846FFF7F6FD06
S315080015D0B7E700216846FFF721FEB2E70021684613
S315080015E0FFF726FDADE700BF0953000808B58020C0
S315080015F0FFF7FCFE034B98429EBF4FF48032024B26
S315080016001A6708BD005A620200A000501FB50023E1
S31508001610B0F5807F019300F0C38064D85D2855D863
S315080016204C2806D82D2847D823282BD840F25951BC
S31508001630A5E04D381028F9D801A353F820F000BFCB
S31508001640971700082D1600082D1600082D160008F5
S31508001650491700082D1600082D1600081D18000841
S31508001660671700080D170008131800082D1600083C
S315080016702D1600082D1600082D1600082D16000830
S315080016802718000824380928D0D801A353F820F0D1
S315080016909717000897170008971700089717000864
S315080016A0971700082D160008871700082D1600083A
S315080016B029170008CD1700083D2800F082803E282B
S315080016C0B4D1002001A9FFF7A9FD60E08028ADD1BB
S315080016D0574B1B6F03F00703013B032B4DD8DFE87D
S315080016E003F04A47878FB0F5F06F6AD021D8B0F576
S315080016F0B06F48D00FD8B0F5607F00F0858095D3DD
S31508001700B0F5806F47D0B0F5A06F8FD1002001A942
S31508001710FFF72CFC3BE0B0F5D06F57D0B0F5E06F83
S31508001720CFD0B0F5C06F81D1002001A9FFF756FCD4
S315080017302DE0B0F5206F71D00BD8B0F5086F4AD000
S31508001740B0F5106F7FF472AF002001A9FFF736FDE0
S315080017501DE0B0F5406F5CD0B0F5486F63D0B0F5CA
S31508001760286F7FF463AF002001A9FFF7D1FC0EE0D4
S31508001770052301930BE00223FBE740F2AA412D481B
S3150800178003F07CF903E0002001A9FFF7BFFB0198ED
S3150800179005B05DF804FB002001A9FFF747FBF6E753
S315080017A002934FF0E0231B695B0705D5FEF70AFF96
S315080017B00D230393039BDCE703A902A8FFF70EFC9E
S315080017C0F8E7002001A9FFF753FDE0E7002001A98B
S315080017D0FFF7C4FCDBE7164BD3F8003103F003032D
S315080017E0022B07D0032B09D0012B0BD1FEF700FFE4
S315080017F00323BEE7FEF748FF0923BAE703F036F9E5
S315080018000823B6E70123B4E7184601A9FFF7E4FA67
S31508001810BDE7002001A9FFF741FBB8E7002001A9B1
S31508001820FFF706FCB3E7002001A9FFF739FCAEE78E
S3150800183000800050095300084FF48012034B5A6683
S315080018404FF48032024B9A62704700BF00900050F6
S315080018500050005AB0F5207F38B577D00ED8B0F5CD
S31508001860007F61D003D890B3B0F5C07F2FD040F287
S31508001870FE21BDE838403D4803F000B9B0F5607F69
S31508001880F5D13B4A4C1ED2F8FC5015F080751EBFA8
S31508001890D2F8FC3023F08073C2F8FC30032C04D94C
S315080018A040F2DF21314803F0E9F8324BD3F88010D3
S315080018B021F0300141EA0411C3F8801035B12C4AF1
S315080018C0D2F8FC3043F08073C2F8FC3038BD1029DA
S315080018D001F1FF3404D8284B23FA01F1CB0704D4CD
S315080018E040F2B521214803F0C9F803F028F903F0BE
S315080018F034F94FF48031214B1E4A1967136F23F4CC
S31508001900704343EA04331367FEF75CFE0446FFF7A9
S3150800191057FAC0F10201204603F019F900F040F821
S31508001920BDE83840FFF762BE4C1E1F2C04D940F2B2
S31508001930F2210E4803F0A2F80E4BD3F8901021F0CE
S31508001940F85141EA0461C3F89010BFE74C1E012C18
S3150800195004D94FF43E71054803F090F8054B196F0A
S3150800196021F4806141EA84211967AFE70953000829
S3150800197000ED00E0008000501601010000900050C4
S3150800198008B50121022000F02FF803F0D8F803F07B
S31508001990E4F84FF48032014B1A6708BD00900050F6
S315080019A008B54FF4C070FFF721FDBDE808400449AB
S315080019B088428CBF022101214FF42070FFF74ABFED
S315080019C080F0FA02024A536B0342FCD1704700BF0B
S315080019D000400950034A0179D36E23F030030B43C4
S315080019E0D3667047004000502DE9F0410446264B67
S315080019F0D3F88420D006FBD4D3F88430C3F38113FC
S31508001A009C423ED0FEF7C4FD012C05460BD11F4B68
S31508001A10984204D940F23C711D4803F02FF8012181
S31508001A20284603F094F803F0B2F84FF00072194B09
S31508001A3007465A66204603F0BAF84FF48063124EFA
S31508001A40621E9340DFF848803367736E9A0103D4A9
S31508001A50D6F884309B060AD5384603F09CF8022C43
S31508001A600FD12846BDE8F041002103F070B8D6F83A
S31508001A7084309906E9D540F24A71404602F0FEFFE5
S31508001A80E3E7BDE8F08100BF00400050005A62025B
S31508001A90A45300080060005007B518B90191FEF775
S31508001AA077FD0199064B1B7843B1064B984205D83A
S31508001AB0012003B05DF804EBFFF796BF0220F8E7B4
S31508001AC000130020005A62024FF00042154B10B571
S31508001AD05A664AF6CD3314494C6C0B6404F001047B
S31508001AE088B90120FFF76EFF4B68DB0704D50F4B5B
S31508001AF058600B6BD807FCD514B10B4B0C4A1A640B
S31508001B0003F056F810BD0B6B1A07FCD42022074BBE
S31508001B109A620122A3F580535A60034A936A9B0688
S31508001B20FCD5E9E7009000500040095000600950D4
S31508001B303254FFFF4FF0004238B5164B01465A663D
S31508001B404AF6CD33144C154A656C236443780B204A
S31508001B505B0043F00103D363FFF734FF63688A78B9
S31508001B6023F4F87343EA02136360CA784B7943EAAD
S31508001B700223A3600A798B7943EA02232361087852
S31508001B80FFF7A2FFEB0744BF054B236403F010F8E9
S31508001B90012038BD00900050004009500040005018
S31508001BA03254FFFF0F2870B5044604D940F6C251D7
S31508001BB0134802F063FF4FF00042124B12495D6E64
S31508001BC003F580535A664AF6CD334E6C80200B6473
S31508001BD0FFF7F8FE0B6A23F00F030F2C94BF23437D
S31508001BE043F00F030B62F30744BF084B0B64002D49
S31508001BF0A2BF4FF00042064B5A6602F0D9FF70BDED
S31508001C00A453000800800050004009503254FFFFDA
S31508001C1000A0005010B502F0D0FF042300F5805153
S31508001C2000F500520B6113610B6113610B611361BF
S31508001C300B611361202341F2020103610023C36093
S31508001C40836041614FF4A021836183654162054940
S31508001C50C36103628362C36243630365D16403633A
S31508001C6010BD00BFFF3F0D0338B5174B0446984219
S31508001C700D4607D0154B984204D040F2651114481A
S31508001C8002F0FCFE25B92046BDE8384002F095BFB3
S31508001C90012204F580535A6040F6FF71204605F08C
S31508001CA00F0202F086FFA263782102F082FF05F098
S31508001CB001036A0748BF43F00203A26C02F003025D
S31508001CC09A42FAD138BD00BF0000015B00000A50F5
S31508001CD03F5400082DE9F04105460C46174622B93F
S31508001CE040F212216D4802F0C9FE6D4B9D4200F08C
S31508001CF0C9806C4B9D4200F0CA8040F215216748A6
S31508001D0002F0BCFE44B94FF45971644802F0B6FEBD
S31508001D102046FFF76BFB0446AB68D80744D5BC42A0
S31508001D2004D240F21F215D4802F0A8FE6B6803F05A
S31508001D300108B4FBF7F35C1EFF2C04D940F22721F7
S31508001D40564802F09BFEB8F1000F2BD028212846F2
S31508001D5002F02FFFAB6C99071ED1AB6CDA071DD4C6
S31508001D60AE6C16F002061BD14FF40D714B4802F00B
S31508001D7085FE284602F021FF2B6923F07F4343EABC
S31508001D8004632B61B8F1000F00F0868031462846BF
S31508001D90BDE8F041FFF768BF0526EAE70926E8E748
S31508001DA00626E6E74646E7E76B68012B04D040F2CD
S31508001DB047213A4802F062FEAB6DA968DB0701F0DD
S31508001DC0E00148BF7F00402946D009D8B9B120298B
S31508001DD038D040F28921BDE8F041304802F04EBEC5
S31508001DE0602945D08029F4D107EB4703A34204D9DB
S31508001DF040F28321294802F041FE012308E0B7EBAF
S31508001E00141F04D940F26F21244802F037FE10232C
S31508001E107B436401B4FBF3F3234E203BB6EBC30FBD
S31508001E204FEAC30404D24FF425711C4802F026FE7B
S31508001E3028463440012102F0BCFE2C63BDE8F0417F
S31508001E4002F0B7BEB7EBD40F04D94FF41D7113488F
S31508001E5002F014FE0823DBE70626B4FBF6F3BB42C2
S31508001E6004D240F279210D4802F008FE3346CFE746
S31508001E70B7EB940F04D940F27E21084802F0FEFD24
S31508001E800423C5E7002C7FF447AF562440E7002C0F
S31508001E907FF442AF57243BE7BDE8F0813F54000882
S31508001EA00000015B00000A50F8FF7F00F8B51E46E7
S31508001EB0436804460D4617461BB140F6FF7102F00B
S31508001EC078FE2046FFF7A6FEE9896B7B62690B431D
S31508001ED0298A22F44C520B4322F00F021343636102
S31508001EE0A2682B7E297B22F0804222F0E202194367
S31508001EF011436A691143AA68A1601AB9A26842F037
S31508001F000042A260E869002860D0A268017A42EA25
S31508001F108152A260A268817A42EA4142A26082881E
S31508001F20A16802F4C0420A43A260A268417842EA64
S31508001F308102A260A268417B42EAC102A260A2684D
S31508001F40817B42EA0112A260A268817842EA812274
S31508001F50A260C2798179520242EA8122E26002785D
S31508001F6002F0FD01012908BFE168A2F1020204BFDF
S31508001F7041F00401E160012A5E495F4A77D88C4244
S31508001F8073D05E498C420CBF01214FF0FF3102EB42
S31508001F90411241F294414FF0020C42F801C0427AD4
S31508001FA004F580518A621AB1E26842F40062E2607E
S31508001FB0C27A5AB1E26842F40042E2604D4A94425B
S31508001FC064D1027B4E4902F00F024A6747B197F87F
S31508001FD0202004F5805C002A62D00122CCF820205B
S31508001FE07EB304F5805013B14FF40043836596F829
S31508001FF02120404B102A434962D89C425ED03F4B71
S315080020009C420CBF01234FF0FF330127CF54768C37
S315080020103849B6F5006F3C4B60D88C425CD03749DE
S315080020208C420CBF01214FF0FF3101275F54A36D8D
S31508002030324323F4F95323F01E031343A365012304
S31508002040836505212046FFF70FFEAA681AB12046C8
S315080020506968FFF73FFE20462978FFF705FEA36C5F
S31508002060DB4313F4405FFAD1F8BD00218FE78C42B9
S315080020700AD022498C420CBF01214FF0FF3102EBF6
S31508002080411242F2944186E70021F8E71B4A94423E
S3150800209001BF027B1A4902F00F02C1F8802095E7BA
S315080020A097F82210E06997F821200A4320F00901E1
S315080020B00A4342F00102CCF81C2091E70023A4E76A
S315080020C09C4207D00D4B9C420CBF01234FF0FF33B7
S315080020D002279BE70023FBE70021A6E78C4207D0EF
S315080020E006498C420CBF01214FF0FF3102279DE7BC
S315080020F00021FBE70000015B00C0035000000A5006
S31508002100009003500313002001130020134B70B5F1
S31508002110984205460C4606D0114B984203D07021CA
S31508002120104802F0ABFC1CB972210E4802F0A6FC5E
S31508002130237B802B03D176210A4802F09FFC637B20
S31508002140032B03D97921074802F098FC002321467E
S315080021502846BDE870401A46FFF7A8BE0000015B96
S3150800216000000A503F5400082C4B70B598420546AB
S315080021700C4647D08A212A4802F080FC34B98C21C3
S31508002180274802F07BFC254B9D423DD09E212448E2
S3150800219002F074FC637B032B03D9AA21204802F0C2
S315080021A06DFC237B802B03D0AC211D4802F066FC16
S315080021B06369B3F1804F03D0AE21194802F05EFC83
S315080021C0238A23F400539BB2B3F5805F03D0B02172
S315080021D0134802F053FCA368013BB3F5165F03D31B
S315080021E0B2210F4802F04AFC002321462846BDE8E2
S315080021F070401A46FFF75ABE40F20B13D340DB076E
S31508002200C4D5C7E70029BAD05620FFF7FFF9A0F1D1
S315080022100902082AF0D91228BCD0B7E70000015BEA
S315080022203F54000838B50D460446B0B1012816D00B
S31508002230022816D0032803D13F23EB40DB0704D43A
S3150800224040F22D41084802F019FC30200121444390
S31508002250064B01FA05F51D5138BDFF23EDE70F239F
S31508002260EBE740F2FF33E8E7DD54000840D00350BF
S3150800227038B50D460446B0B1012816D0022816D046
S31508002280032803D13F23EB40DB0704D440F2FE3199
S31508002290084802F0F3FB302001214443064B01FABB
S315080022A005F51D5138BDFF23EDE70F23EBE740F297
S315080022B0FF33E8E7DD54000840E003502DE9F0411C
S315080022C00D46174698460446002835D0012835D0CD
S315080022D0022835D0032803D13F23EB40DB0704D47B
S315080022E04FF4B0711C4802F0C9FB37B129462046A5
S315080022F0B8F1000F27D0FFF795FF0F21072D04EB44
S31508002300440688BFA5F108034FEA0616134895BF89
S31508002310AB009B0004360C3607FA03F299403044AA
S3150800232002F06AFCB7B929462046B8F1000F0DD06D
S31508002330BDE8F041FFF776BFFF23CEE70F23CCE7D2
S3150800234040F2FF33C9E7FFF793FFD6E7BDE8F04150
S31508002350FFF78EBFBDE8F0817955000830C00350FD
S315080023604FF400120B4B10B5C3F88020BFF34F8F04
S31508002370BFF36F8F0024FF22074B21465C652020A0
S315080023809A625C60FFF706F82146BDE810402120F6
S31508002390FFF700B800E100E000000450072838B550
S315080023A004460D4603DD7721094802F067FB1F2C1A
S315080023B003D99121074802F061FB074B074A012020
S315080023C0002D18BF134600FA04F41C6038BD00BF80
S315080023D015560008B1560008401004504020045015
S315080023E010B5044618B991211F4802F047FB237817
S315080023F01B0613F0604F03D092211B4802F03EFBE8
S31508002400E3780F2B03D9A321174802F037FB0121E4
S315080024102020FEF7BFFF01212120FEF7BBFF012286
S31508002420124B5A60227812069A606178A27842EABC
S3150800243001429A61FF229A6200229A631A644FF057
S3150800244000425A654FF0FF324FF4001103F500536E
S315080024501A65074AC2F88011E3781B01DBB282F8D5
S315080024601533116010BD00BF155600080000045052
S3150800247000E100E02DE9F0410126C3B20728054630
S315080024800C46904606FA03F603DDEC21364802F0C0
S31508002490F5FA1CB9ED21344802F0F0FA236823F462
S315080024A07C1323F00F031BB1F0212F4802F0E6FA44
S315080024B0A37A1B0413F47C0F04D040F209112A48AE
S315080024C002F0DCFAE37A1B0513F07E6F04D040F2C3
S315080024D00B11254802F0D2FA237B5B0513F0FE5F49
S315080024E004D040F20D11204802F0C8FA30201F4FE0
S315080024F01F4B617B1E65AB0000FB0575226803F167
S31508002500A04303F588235A602966E37AA27A1B0555
S3150800251043EA0243227B43EA425328F00302EB656F
S315080025202A6702F03BFB7B6D33437B65237A13B145
S315080025303B6C33433B64637A13B1BB6B3343BB6376
S315080025402279A37943EA0243094A93616179E379D7
S3150800255043EA014307498B61044B56639E64BDE811
S31508002560F04102F021BB00BF1556000800000450D8
S31508002570002004500010045010B50124C3B20728E7
S3150800258004FA03F404DD40F29711074802F076FADC
S3150800259002F004FB054B5A6D22EA04025A659C6256
S315080025A0BDE8104002F000BB1556000800000450B4
S315080025B010B50124C3B2072804FA03F404DD40F277
S315080025C0B5110A4802F05AFA02F0E8FA084BDA6A34
S315080025D0224209D15B6B34EA03030CBF01240024B1
S315080025E002F0E2FA204610BD0024F9E71556000865
S315080025F000000450F8B50125C3B20728044605FAB9
S3150800260003F504DD4FF4EE710C4802F037FA02F0D8
S31508002610C5FA30220A4B1E6D5F6B02FB04335C6EF3
S3150800262002F0C2FA3D4206D1C4F30A1008B935428F
S3150800263000D10130F8BD0020FCE700BF15560008A0
S31508002640000004500B4B984211D003F58043984282
S315080026500DD003F58043984209D003F5804398428C
S3150800266005D003F58043C31A5842584170470120E4
S31508002670704700BF00800450F8B51F461A4B0E4637
S31508002680984215461ED003F5804398421CD003F5A0
S31508002690804398421AD003F58043984218D003F530
S315080026A08043984216D01148822102F0E7F94FF08C
S315080026B0FF3006210E4C7FB101FB006004EB800061
S315080026C08564F8BD0020F4E70120F2E70220F0E770
S315080026D00320EEE70420ECE701FB00602D0204EB83
S315080026E08004A564EDE700BF008004504C5700083D
S315080026F00081035038B505460C46FFF7A3FF18B905
S31508002700A5212D4802F0BAF9284602F086FA0122D8
S3150800271005F500531A632A6B12F00202FBD12379DE
S3150800272061881B0243EA8143617A0B436178002979
S3150800273014BF402100210B43A17A002914BF802130
S3150800274000210B43E17A002914BF202100210B4305
S31508002750217B002914BF102100210B43617B00292E
S3150800276014BF082100210B43A17B002914BF4FF495
S31508002770006100210B43A179002914BF4FF4803171
S3150800278000210B4301216B6005F5805319632178FD
S3150800279009B90223EB6000236B62E079237A43EAE6
S315080027A080036079002818BF10221A43AA6009B16D
S315080027B00123EB6038BD00BF4C5700082DE9F041F6
S315080027C0074688461446FFF73DFF18B9FA212A48F6
S315080027D002F054F9B8F1020F03D9FB21264802F09A
S315080027E04DF9384602F019FA012207F500531A6323
S315080027F03E6B16F00206FBD1E279A379002A627ACB
S3150800280014BF4FF480110021002A14BF10220022A1
S31508002810E07A07EB481543EAC0430B4313432B669C
S31508002820237A33B3237B2A6E414642EA43422A6619
S31508002830013B18BF01233846A278FFF71DFF012385
S3150800284007F580573B63637822781B0643EA826361
S31508002850E27843EA0233227943EA8223627943EA39
S315080028600223A27A002A18BF042633436B66BDE802
S31508002870F0812B6E2B66E2E74C570008054B9A68E9
S315080028809107FCD45A689207F9D4DA69002AF6D176
S31508002890704700BF00800A5008B5FFF7EFFF012216
S315080028A0024B03F580514A601A6108BD00800A5040
S315080028B0074B5A68012A0AD15A68D20702D5DA693B
S315080028C0002AF9D102221A610122024B5A60704786
S315080028D000800A5000A00A5010B5064CFFF7CEFF3C
S315080028E06368012B03D1FFF7E3FFFFF7C7FF037800
S315080028F0E36010BD00800A5018B17121104802F03B
S31508002900BDB84A680B7812B1127843EAC2034A780E
S31508002910002A14BF0222002213438A6812B11278D1
S3150800292043EA82138A78002A14BF0422002213433A
S31508002930CA6812B1127843EA4223024A936470477E
S31508002940E957000800800A5020B14FF48271034805
S3150800295002F094B8024B5964704700BFE957000863
S3150800296000900A5020B14FF4A071034802F086B8CF
S31508002970024B5964704700BFE957000800A00A5087
S3150800298020B14FF4BE71034802F078B8024B1964BF
S31508002990704700BFE957000800A00A5008B530B1D3
S315080029A0044840F2B71102F069F8002008BD024B4E
S315080029B0186CFBE7E957000800800A5008B548B1CB
S315080029C0084840F2662102F059F8002008BD064B77
S315080029D0D86CFBE70029FAD00129F7D1024B186D0C
S315080029E0F4E700BFE957000800800A5050B14FF4D9
S315080029F04171074802F042B8064BDA647047054B46
S31508002A001A6570470029F7D00129F8D0704700BF2A
S31508002A10E957000800800A5007B5094B18689A88D4
S31508002A209B7900906846ADF804208DF80630FFF7CC
S31508002A3081F80C20FFF7B6F8002003B05DF804FB18
S31508002A409458000813B50024064A6846536F43F0A5
S31508002A500103536700948DF80440FEF7BBFF204638
S31508002A6002B010BD004000506FF00402502110B5AE
S31508002A700A480B4C12F0800FD3B21BBF03F00F03AA
S31508002A80043BA3181B1802F101020CBF83F80013BC
S31508002A9019764C2AEED1002010BD00BF00ED00E0EB
S31508002AA000E100E010B5044602F071F8024B1C6024
S31508002AB002F071F8002010BDBC12002010B502F01B
S31508002AC066F8034B1C6802F066F8204610BD00BF86
S31508002AD0BC1200202DE9F04188B01C4604AB06461E
S31508002AE00F4618469046002110220E9D02F0CDF999
S31508002AF0227903460AB18DF81020C8F81C3063798C
S31508002B003046002B14BF01230223CDE90233774B4D
S31508002B103A460193002329460093754B00F008FCBA
S31508002B200646002840F0B380A3680121AB64E36938
S31508002B303A20AB65237E85F8543063692B65237C80
S31508002B4085F84C30636A2B6694F8203085F85C303B
S31508002B50E36AAB6694F8283085F8643023686B64BA
S31508002B60FEF718FC012304226169207CFFF7A6FB07
S31508002B7001230222E169207EFFF7A0FB88F80060A6
S31508002B8085F86C600121A068FEF704FC6379002BC8
S31508002B9032D101213620FEF7FDFBA368562B02D061
S31508002BA0B3F5A06F08D1534AD2F8203223F00703B1
S31508002BB043F00303C2F8203241462068FFF7D4FAEF
S31508002BC01021E2684C4B606903EB421CCCF8941464
S31508002BD0217C253241EA0041CCF8AC14E069217E1B
S31508002BE003EB421341EA004159602379032B7AD853
S31508002BF0DFE803F0412451713E4AD2F8283123F028
S31508002C00070343F00103C2F82831A368562B02D004
S31508002C10B3F5A06F07D1D2F8203223F0070343F0AB
S31508002C200103C2F8203241462068FFF76FFA95F88B
S31508002C306C3043F0040385F86C30C1E795F86C30C6
S31508002C4043F0010385F86C30002500230222616AEF
S31508002C5094F82000FFF732FB616A94F82020E368B5
S31508002C6042EA014241F29C415B0103F1A04303F5AC
S31508002C7070335A50ADB9BB7E20682BB1042200F5DB
S31508002C8080531A6510221A650521FEF7EDFF3046B6
S31508002C9008B0BDE8F08195F86C3043F0020385F87A
S31508002CA06C3000230422E16A94F82800FFF706FB3B
S31508002CB041F294420221E3685B0103F1A04303F564
S31508002CC07033995094F82820E16A03F5A55342EA2F
S31508002CD001421A60CFE795F86C3043F0030385F894
S31508002CE06C300125B1E72326D1E700BFDF4C000889
S31508002CF0474D00080080005000C0035010B5002062
S31508002D00144601F091FF18B1BF21024801F0B6FE42
S31508002D10204610BD9B580008034B02221868002362
S31508002D208068194600F052BF2410002070B504468A
S31508002D300568FFF7C3FE844202D10020FFF7B2FE02
S31508002D4095F94230002B11DB012203F01F015B09C4
S31508002D509B0003F160438A4003F56143C3F8802171
S31508002D60C3F88020BFF34F8FBFF36F8FA869FDF7B5
S31508002D7089FF20B140F217210C4801F07FFEA869AF
S31508002D80FDF7E6FE20B140F21B21084801F076FE69
S31508002D90FDF7BCFE00232846C4E90033C4E9043322
S31508002DA0A3606B6BBDE87040184700BF5559000813
S31508002DB02DE9F04F04460D469046002685B090F85A
S31508002DC038A0DFF834B10093464502D305B0BDE814
S31508002DD0F08F009B93B1BAF1000F06D02B780A2B1F
S31508002DE003D10D212046A36A98472046A36A29786D
S31508002DF098470028EAD101350136E5E794F83930D5
S31508002E0083B101F0CBFE237D074683B9E26B636A83
S31508002E109A4204D040F23B21584601F02FFE38462C
S31508002E2001F0C2FE94F84030002BCDD0D3E7A0695C
S31508002E3003A9FDF769FF20B14FF41071584601F058
S31508002E401DFEE36803BBD4E9071223698B420CBF56
S31508002E509B1803F1FF331B78112B11D1012384F83A
S31508002E60403023690399E268521A1344D4E90721CA
S31508002E7011448B42E363D2D35B1A1344E363CEE770
S31508002E80132BEED10023EAE722690399E3685B1A5C
S31508002E901A44E06B9042E4D010D2121A1121019222
S31508002EA001F0EDFD019A81461321E06B01F0E7FD83
S31508002EB0E26BB9F1000F1BD198B9EAE7E069112175
S31508002EC0121A019201F0DBFD1321019A8146E0698D
S31508002ED001F0D5FDD4E907210A44EAE7484538BF99
S31508002EE04846A9EB00035842584184F84000B8E721
S31508002EF00028F3D14846F4E7555900082DE9F04F64
S31508002F002DED028B89B00446884615469A4601F08F
S31508002F1045FE08EE100A002D00F03081237D03F0EF
S31508002F20FF02002B00F04D81D4F81890676A4846D6
S31508002F30FDF768FE20B140F2DA31A34801F09EFDA4
S31508002F40484607A9FDF7E0FE20B14FF477719E4881
S31508002F5001F094FD48460DF11A01FDF7B3FE20B1C4
S31508002F6040F2DE31984801F089FD079A2669E36840
S31508002F709B1A1E44B74225BFD4E907329B18A6EB15
S31508002F80070BA3EB070BBBF1000F04D140F2EB31A3
S31508002F908D4801F073FD9DF81A305D4528BF5D46E2
S31508002FA0002B00F09C80D4E9072313449E4240F08E
S31508002FB085802261BA1A2A44E2602669E36823B941
S31508002FC040F21B41804801F059FD8049226903916E
S31508002FD0E368217A4846CDE9013101230494009338
S31508002FE0D4E9001301F091FD20B140F22A41764858
S31508002FF001F044FD94F8393073B194F841305BB967
S315080030000123112220468DF81B2084F841301A46E8
S315080030100DF11B01FFF7CCFED4E9072307EB050BDF
S315080030201A44934533BF636AEB1ADB195B199E4250
S3150800303063624FF0010340F0828000224846227501
S315080030402661E360FDF71EFE20B140F264415E484A
S3150800305001F014FD5D4922690391E368217A484627
S31508003060CDE90131012304940093D4E9001301F05A
S315080030704CFD20B140F27141534801F0FFFC94F831
S315080030803930ABB194F84130002B40F095800123DC
S31508003090112220468DF81B2084F841301A460DF17E
S315080030A01B01FFF785FE94F83930002B40F0848029
S315080030B02A463946404601F0DBFE56E0B74202D3BF
S315080030C02661E56079E79E4203D29B1B2661E36091
S315080030D073E740F217413C4801F0D0FC6EE7B7426F
S315080030E025D93022E3682B44E360394B02FB0932C9
S315080030F0516ED06EC1F30A1BAB445844D4E907217C
S315080031000A44904205D340F242412F4801F0B6FCEA
S315080031102F4B302202FB09335A6E22F4FF4222F06B
S3150800312070025A665A6E42EA0B125A6674E77FF4C0
S3150800313073AF40F24E41244801F0A0FC6CE72375BA
S31508003140B1E711F8013F03F0FD00112827D088F8F0
S31508003150003008F10108B045F3D1E36B9F4203D86C
S315080031609B4584BF636AE363AD1A4846FDF76AFD6B
S3150800317020B140F2B441144801F080FC18EE100A60
S31508003180CAF8005001F010FDDAF80030002B0CBF29
S315080031901B20002009B0BDEC028BBDE8F08FE06B68
S315080031A001328742D5D88842D3D8A3F111004342C9
S315080031B0434184F84030CCE70022791E08EB050627
S315080031C0C9E71546DAE700BF55590008D5310008A2
S315080031D00000045070B514461269E36906469A421F
S315080031E088B004D3216A22690B449A4204D340F278
S315080031F037314D4801F042FC237D3BB92369013341
S315080032002361E368013BE360012323752569E368CD
S315080032101D44E369AB4203D8226A13449D4204D98C
S315080032204FF45371404801F029FCD4E907120A44C7
S31508003230AA42636A43D121615B1AE3602369E068A5
S315080032400344994201D89A4204D240F26B31364877
S3150800325001F014FC94F83930002B38D0E368002BC1
S3150800326035D184F8413013238DF81F3001232046C9
S315080032701A460DF11F01FFF79BFDE36922693046E7
S315080032809A4209BF236A226903F1FF33D218274BF2
S3150800329018BF02F1FF320393237A049402930123A1
S315080032A0CDE90033D4E9001301F02FFC20B14FF427
S315080032B063711D4801F0E2FB012008B070BD9D4214
S315080032C0256101D85B1BB8E7551BE560B6E7E368DF
S315080032D0002BF1D0154922690391E368217A30461B
S315080032E0CDE90131012304940093D4E9001301F0D8
S315080032F00CFC20B14FF467710B4801F0BFFB94F842
S315080033003930002BD8D094F84130002BD4D1012382
S31508003310112220468DF81F2084F841301A460DF1F7
S315080033201F01FFF745FDC7E755590008D5310008C5
S31508003330F0B50C460646154687B0442200212046BD
S315080033401F4601F0A2FD95E80700002384E8070060
S3150800335023756A692B69C4E908232A7EE36184F820
S315080033603820AA7EE363012384F8403084F841308C
S315080033700C9B84F83920E3620D9BA76263632B7B61
S3150800338084F84230224B34607360224BB360224B80
S315080033903361224B7361224BF360FDF7FFFB30B1BB
S315080033A0204B984203D01024204607B0F0BD0021D8
S315080033B004F11800FDF77AFB0028F4D10127E36928
S315080033C023616362184BE760226904940393237AA6
S315080033D00097CDE90173A069D4E9001301F095FBC4
S315080033E004460028DFD195F90C30002B0BDB03F0DF
S315080033F01F025B099B0003F16043974003F5614395
S31508003400C3F880711F603046FFF74CFBCCE700BF5E
S31508003410E14D0008FD2E0008D54D0008DB4D0008DB
S315080034202D2D0008038000F0D531000830B50F4C6B
S3150800343041612368ABB92060836011E0891A9A68F4
S315080034401D4641612AB113465A698A42F6D955B1D1
S315080034501A461346A860836013B15A69511A59610E
S3150800346030BD0025F0E72060F5E700BFCC1200204C
S3150800347010B500F085F90A4C0A4B19682368C31A77
S3150800348001B10BB9206010BD4A699A423ABF9B1A2E
S315080034900022D21A4A6128BF00238968F0E700BFD4
S315080034A0C0120020CC12002038B5134D2B685B697A
S315080034B093B1124A022014681C4401F09BFC204672
S315080034C000F066F900230E492A680B70D088800739
S315080034D009D501230B7038BD022001F08BFC0220B0
S315080034E000F0A4F9EEE79268002AF4D05069034484
S315080034F0012BEBD9EFE700BFCC120020C012002049
S315080035000613002000220C490B687BB183420AD1BE
S3150800351083687AB1936083681BB15A6941690A4422
S315080035205A61002070471A469B68EEE70028EFD0DC
S31508003530022070470B60EEE7CC12002070B501F050
S315080035402DFB144E05463478FCB9134B1C60134BFF
S315080035501C60134B1C8000F0E1F8012001F04AFCC6
S3150800356001F06BFC0F4B0246186020B9284601F0A3
S315080035701BFB232070BD234640F2E7310A4800F0C2
S315080035805DF90A4B186001233370284601F00CFBDD
S315080035900020EFE705130020CC120020C0120020FF
S315080035A0DC120020C812002018FCFFFFC4120020FD
S315080035B0C2072DE9F84F04460BD54F4A1388013345
S315080035C09BB21380FFF754FF4C4B1B680BB1FFF7F8
S315080035D06BFFA30740F18E8001F0E0FA4FF0000A76
S315080035E005465646FFF744FFD046444FDFF8149188
S315080035F03C680CB163698BB10022414B012E1A70ED
S3150800360003D1BAF1020F08BF1E70002C62D0FFF773
S315080036104BFF2846BDE8F84F01F0C6BA23461A798B
S315080036202179914288BF1C469B6813B15A69002AC2
S31508003630F5D0284601F0B8FAD4F810A0BAF1000F70
S315080036404CD000F09DF8A269851AEB17AA4578EBCD
S31508003650030344DA236913440122A36123691BB3D4
S3150800366012BBEB17BAEB050563EB4303002B04DA31
S3150800367040F20C51484601F001FAA38B33B1E28BB4
S3150800368013449BB2B3F57A7F1CD2E38301F086FA22
S31508003690824629462046FFF7C9FEA3692269504695
S315080036A01344A36101F080FAE368B4F806A0013672
S315080036B013B120462168984701F070FA0546FFF7CE
S315080036C0D7FE95E7A3F57A73E383A369013D013B2A
S315080036D0A361DBE7022000F093F89AE7554601F06C
S315080036E05DFA83462046FFF70DFF584601F05CFA5F
S315080036F00022B3E7BDE8F88FDC120020CC120020C8
S3150800370007130020055A0008034B5A68D20702D54A
S31508003710DA69002AF9D1704700800A5010B50121EC
S31508003720002486B03E20ADF80810CDE903448DF894
S3150800373004408DF80A400594FDF72CFE01A8FFF712
S31508003740CBF8204602A98DF80840FFF7D5F82046A1
S315080037500F21FFF707F90F212046FFF711F9FFF7A9
S315080037609BF8FFF7D1FF0822034B9C61034BC3F874
S3150800377088219A6006B010BD00800A5000E100E07A
S3150800378008B5FFF7C1FF014B986908BD00800A50CC
S31508003790F8B5044601F0FBF9FFF7B6FF164B0746E6
S315080037A09D6901F023FB06460020FFF7F7F883071B
S315080037B004D4731B032B01D8AE420FD10021631B1F
S315080037C0022B98BFEC1C0846B4F1FF3F2CBF2246DB
S315080037D0621EFFF70BF9022001F00CFB384601F0D8
S315080037E0DAF9064A137833B103498B6C43F00103BF
S315080037F08B6400231370F8BD00800A508B100020DC
S31508003800830700F0010109D50122064B41F00201A8
S315080038101A70054A936C23F0010393640020FFF79E
S31508003820A1B800BF8B10002000800A50830742BF52
S315080038300222014B1A64704700900A5053B94AB9DC
S31508003840002908BF00281CBF4FF0FF314FF0FF309A
S3150800385000F082B9ADF1080C6DE904CE00F006F867
S31508003860DDF804E0DDE9022304B070472DE9F04FE6
S31508003870099D04460F46002B48D18A42944661D9D1
S31508003880B2FA82F343B1C3F120019F4002FA03FC66
S315080038909C4020FA01F10F434FEA1C411FFA8CFEA7
S315080038A0220CB7FBF1F601FB167706FB0EF042EA8F
S315080038B00742904208D91CEB020206F1FF3702D2F2
S315080038C0904200F237813E46121AA4B2B2FBF1F0DA
S315080038D001FB102200FB0EFE44EA0244A64508D965
S315080038E01CEB040400F1FF3202D2A64500F21C814B
S315080038F0104640EA0640A4EB0E0400261DB1DC4043
S315080039000023C5E900433146BDE8F08F8B4209D94B
S31508003910002D00F0FD800026C5E90001304631463D
S31508003920BDE8F08FB3FA83F6002E4BD18B42C0F078
S31508003930F280824240F2EF803046002DE3D0C5E99E
S315080039400047E0E702B9FFDEB2FA82F3002B40F047
S315080039509D80891A4FEA124E97B20126200CB1FBB8
S31508003960FEF20EFB121140EA014107FB02F0884203
S315080039700FD91CEB010102F1FF382CBF4FF00109EA
S315080039804FF00009884203D9B9F1000F00F0CF8043
S315080039904246091AA4B2B1FBFEF00EFB101100FB59
S315080039A007F744EA0144A74208D91CEB040400F1CE
S315080039B0FF3102D2A74200F2B4800846E41B40EA6F
S315080039C002409BE7C6F12007B34001FA06F422FA43
S315080039D007FCF940B2404CEA030C20FA07F34FEA19
S315080039E01C491C431FFA8CFE00FA06F3200CB1FB97
S315080039F0F9F809FB181140EA014108FB0EF0884264
S31508003A000FD91CEB010108F1FF3A2CBF4FF0010B4F
S31508003A104FF0000B884203D9BBF1000F00F08D80F0
S31508003A20D046091AA4B2B1FBF9F009FB101100FB44
S31508003A300EFE44EA01418E4507D91CEB010100F14F
S31508003A40FF3401D28E457FD8204640EA0840A1EBD4
S31508003A500E01A0FB029841454C46C64602D306D144
S31508003A604B4504D20138B9EB020468EB0C0E002D65
S31508003A7070D01A1B61EB0E0122FA06F301FA07F75A
S31508003A80F14000261F43C5E900713CE702FA03FC32
S31508003A90C3F1200001FA03F221FA00F64FEA1C4EA0
S31508003AA024FA00F11FFA8CF79C401143B6FBFEF08E
S31508003AB00A0C0EFB106642EA064200FB07F696421F
S31508003AC00ED91CEB020200F1FF382CBF4FF001099A
S31508003AD04FF00009964202D9B9F1000F31D040469D
S31508003AE0921B89B2B2FBFEF60EFB162241EA024190
S31508003AF006FB07F28A4207D91CEB010106F1FF38DB
S31508003B0001D28A4223D84646891A46EA004625E75C
S31508003B102E462846F7E6841A61EB030301201F4662
S31508003B200BE76444023849E764440238E1E6023A9E
S31508003B3061442EE7023E6244C6E6A8F102086144E3
S31508003B406FE702386244CBE7023861447DE7023EFC
S31508003B506144D9E72E46D6E6704700BF08B5074B3D
S31508003B60044613B1002100E000BF054B1868836ABC
S31508003B7003B19847204601F015F900BF0000000080
S31508003B80B45A000870B50D4D00260D4C641BA410E0
S31508003B90A64209D10B4D00260B4C01F0C5FA641B51
S31508003BA0A410A64205D170BD55F8043B01369847C6
S31508003BB0EEE755F8043B01369847F2E78C100020EB
S31508003BC08C1000208C100020901000202DE9F7435F
S31508003BD01D465C4B04460E461F68904627B1BB69D6
S31508003BE013B9384600F0D0F9574B9C4267D17C6828
S31508003BF0B8F1020F06D0B8F1010F00F29E80002D31
S31508003C00C0F29B80636EDB0705D4A389980502D4AE
S31508003C10A06D01F078F92146384600F037F9616B56
S31508003C2041B104F14403994202D0384600F072FAD1
S31508003C30002363630023A3616360A389190603D580
S31508003C402169384600F066FAA389B8F1020F23F411
S31508003C504A6323F00303A3816BD001AB6A4621466E
S31508003C60384601F052F9A3891843A081002D30D1B6
S31508003C70009D284600F046FA0646002854D1DDF88D
S31508003C800090A94549D14FF0FF350022B4F90C3010
S31508003C90A26004F1470243F0020322602261012276
S31508003CA0A3816261626ED20705D413F4007F02D144
S31508003CB0A06D01F029F9284603B0BDE8F083234B2F
S31508003CC09C4201D1BC6893E7214B9C4208BFFC6823
S31508003CD08EE7002ECDD0BB6913B9384600F054F9EB
S31508003CE0B8F1010F266002BFA38943F00103A3813F
S31508003CF0A28912F00803C4E904651CD0D30745BF9E
S31508003D0000236D42A560A36048BFA561656E15F0E6
S31508003D10010515D112F4007FC9E7484600F0F2F90B
S31508003D2006460028AFD04D46A38943F08003A381F9
S31508003D30D1E70025A9E7A360E8E74FF0FF35BAE722
S31508003D400025B8E724100020D85A0008F85A0008B9
S31508003D50B85A000813B50B46094902460C6844B11F
S31508003D60A16931B9CDE90003204600F00DF9DDE976
S31508003D700023A168204602B0BDE8104000F0AABAA8
S31508003D80241000208A892DE9F041054610070C46C3
S31508003D9058D44B68002B05DC0B6C002B02DC00208A
S31508003DA0BDE8F081E66A002EF9D0002312F48052AD
S31508003DB02F682B6032D0606DA3895A0705D56368D2
S31508003DC0C01A636B0BB1236CC01A00230246E66A5D
S31508003DD02846216AB047431CA38906D129681D29AC
S31508003DE02CD8294ACA40D60728D50022D9046260A9
S31508003DF02269226004D5421C01D12B6803B960658B
S31508003E00616B2F600029CAD004F14403994202D09D
S31508003E10284600F07FF900206063C1E7216A012384
S31508003E202846B047411CC7D12B68002BC4D01D2B90
S31508003E3001D0162B01D12F60B1E7A38943F04003C7
S31508003E40A381ADE70F69002FA9D093070E680F600D
S31508003E500CBF4B690023A6EB07088B60B8F1000F6F
S31508003E609DDD43463A46216A2846A66AB047002899
S31508003E7006DCA3894FF0FF3043F04003A3818FE7A8
S31508003E800744A8EB0008E9E70100402038B50B69AC
S31508003E9005460C4613B90025284638BD18B183696E
S31508003EA00BB900F071F8144B9C421BD16C68B4F93D
S31508003EB00C30002BEFD0626ED00704D4990502D4DB
S31508003EC0A06D01F020F828462146FFF75BFF636ED8
S31508003ED00546DA07E0D4A3899B05DDD4A06D01F079
S31508003EE013F8D9E7054B9C4201D1AC68DFE7044BD0
S31508003EF09C4208BFEC68DAE7D85A0008F85A000866
S31508003F00B85A0008002310B5044683608181194613
S31508003F104366C28108228361C0E90033C0E90433DD
S31508003F205C3000F0B2FF054B24626362044BA36267
S31508003F30044BE362044B236310BD00BF875000089F
S31508003F40A9500008E150000805510008014900F091
S31508003F50BABF00BF8D3E0008014800F0D4BF00BFBD
S31508003F6009130020014800F0CFBF00BF0913002045
S31508003F70014800F0C8BF00BF0A130020014800F03E
S31508003F80C3BF00BF0A13002010B50446FFF7F0FFB1
S31508003F90A3691BB1BDE81040FFF7F0BFC4E91233AF
S31508003FA023652046124B134A1B68A262A34204BF2C
S31508003FB00123A36100F020F86060204600F01CF899
S31508003FC0A060204600F018F800220421E06060682E
S31508003FD0FFF798FF01220921A068FFF793FF022245
S31508003FE01221E068FFF78EFF0123A361D2E700BF25
S31508003FF0B45A00084D3F0008F8B50746FFF7ACFF6E
S315080040001E4B1E68B36913B93046FFF7BDFF483625
S31508004010D6E90134013B03D533680BB33668F7E7B5
S31508004020B4F90C50D5B9164B04F158006566E3602F
S3150800403000F068FFFFF796FF0822294604F15C00A6
S315080040402560A561C4E90155C4E9045500F01DFFC2
S31508004050C4E90D55C4E912552046F8BD6834D9E7B8
S315080040600421384600F019FF044630600028D5D1EF
S31508004070FFF778FF0C233B60EEE700BFB45A000851
S315080040800100FFFF8B8973B59D0706460C4607D5C9
S3150800409004F14703236023610123636102B070BD05
S315080040A001AB6A4600F031FF00990546304600F03C
S315080040B09DF848B9B4F90C309A05EFD423F00303F8
S315080040C043F00203A381E3E70D4BB362A3892060A3
S315080040D043F080032061A381009B6361019B5BB170
S315080040E0B4F90E10304600F04FFC28B1A38923F02E
S315080040F0030343F00103A381A0890543A581CDE706
S315080041004D3F0008024B0146186800F06FB800BF23
S315080041102410002037B5002943D051F8043C0C1F61
S315080041200190002BB8BFE41800F050FC1E4A019815
S31508004130136833B96360146003B0BDE8304000F01B
S315080041404BBCA34208D9256861198B4201BF19687F
S315080041505B6849192160EDE71A465B680BB1A34213
S31508004160FAD911685518A5420BD124682144541868
S315080041701160A342E0D11C685B682144536011605A
S31508004180DAE702D90C230360D6E7256861198B4262
S3150800419002BF19685B684919636008BF21605460EB
S315080041A0CAE703B030BD00BFD012002070B50E4E6E
S315080041B00C460546316811B900F0E2FA306021462E
S315080041C0284600F0DDFA431C0AD0C41C24F0030478
S315080041D0A04207D0211A284600F0D2FA013001D1B0
S315080041E04FF0FF34204670BDD41200202DE9F0416F
S315080041F0CD1C074625F0030508350C2D38BF0C25C0
S31508004200002D01DBA94205D90C2300263B60304668
S31508004210BDE8F0812E4E00F0D9FB33681C4634BB4E
S3150800422029463846FFF7C2FF431C04464DD1346879
S315080042302646002E40D123683146384604EB03084B
S3150800424000F09EFA80453AD12168033538466D1A42
S3150800425025F0030508350C2D38BF0C252946FFF730
S31508004260A5FF01302BD023682B4423600EE022687B
S31508004270521B1ED40B2A16D96119A342256018BFF2
S315080042805960636808BF316062514B6004F10B06E0
S31508004290384600F0A1FB231D26F00706F21AB6D011
S315080042A09B1BA350B3E76268A3420CBF32605A60F7
S315080042B0ECE723466468B2E734467668B9E70C2328
S315080042C038463B6000F088FBA1E72560DEE700BFC3
S315080042D0D01200202DE9F04F0D469DB014469846A1
S315080042E0064618B183690BB9FFF74EFE894B9D4206
S315080042F01BD175686B6ED90705D4AB899A0502D4AC
S31508004300A86D00F000FEAB891B0701D52B69EBB938
S315080043102946304600F0A8FAC0B16B6EDC070ED508
S315080043204FF0FF301DB0BDE8F08F7B4B9D4201D1A9
S31508004330B568DFE7794B9D4208BFF568DAE7AB89D0
S315080043409805EDD4A86D00F0DFFDE9E70023CDF868
S315080043500C804FF00109DFF8C881099320238DF8F6
S31508004360293030238DF82A3023469A4613F8012B34
S315080043700AB1252AF9D1BAEB040B0BD05B462246C3
S315080043802946304600F0FDFD013000F0AA80099A62
S315080043905A4409929AF80030002B00F0A2800023B4
S315080043A04FF0FF320AF1010A049307938DF8533050
S315080043B01A93CDE9052354460522594814F8011BDA
S315080043C000F0A4FE049AD8B9D10644BF20238DF87C
S315080043D05330130744BF2B238DF853309AF8003017
S315080043E02A2B15D0079A544600204FF00A0C21466E
S315080043F011F8013B303B092B4ED9B0B1079214E0B6
S31508004400A0EB0803A24609FA03F313430493D2E781
S31508004410039B191D1B68002B0391BBBF5B4242F02F
S31508004420020207930793B8BF049223782E2B0CD168
S3150800443063782A2B35D1039B02341A1D1B68002B7F
S315080044400392B8BF4FF0FF330593DFF8E4A00322C9
S315080044502178504600F05AFE40B14023A0EB0A00EE
S31508004460013403FA00F0049B0343049314F8011B78
S3150800447006222C488DF8281000F048FE00283FD068
S31508004480294B1BBB039B073323F00703083303930E
S31508004490099B3B44099367E70CFB02320C46012053
S315080044A0A5E7002301344FF00A0C19460593204668
S315080044B010F8012B303A092A03D9002BC5D00591EB
S315080044C0C3E70CFB012104460123F0E703AB2A46A8
S315080044D004A930460093154B00E000BF0746781C38
S315080044E0D6D16B6ED90705D4AB899A0502D4A86DC7
S315080044F000F00AFDAB895B063FF512AF099811E794
S3150800450003AB2A4604A930460093084B00F012F87C
S31508004510E4E700BFD85A0008F85A0008B85A000855
S31508004520185B0008225B000800000000834F0008A3
S315080045301E5B00082DE9FF470F7E914680460C4614
S31508004540782F9A460C9D01F1430207D8622F0AD8A4
S31508004550002F00F0D880582F00F0A38004F1420500
S3150800456084F842703AE0A7F16303152BF6D801A147
S3150800457051F823F0CD450008E14500085D450008DF
S315080045805D4500085D4500085D450008E1450008F1
S315080045905D4500085D4500085D4500085D45000865
S315080045A0ED46000811460008CF4600085D4500089C
S315080045B05D4500080F4700085D45000811460008DC
S315080045C05D4500085D450008D74600082B681A1D9A
S315080045D01B682A6004F1420584F842300123A3E0EF
S315080045E020682968060601F104030AD50E682B60BF
S315080045F0002E03DA2D23764284F843305E480A23D8
S3150800460019E00E6810F0400F2B6018BF36B2EFE7BE
S315080046102B682068191D2960010601D51E6802E06D
S315080046204606FBD51E886F2F53480CBF08230A235E
S31508004630002184F843106568002DA560A2BF216893
S3150800464021F0040121600EB9002D4DD01546B6FBA8
S31508004650F3F103FB1167C75D05F8017D37460E4682
S31508004660BB42F4D9082B0BD12368DE0708D523698A
S3150800467061689942DEBF302305F8013C05F1FF3534
S31508004680521B22614B4603AA21464046CDF800A09C
S3150800469000F089FC01304CD14FF0FF3004B0BDE882
S315080046A0F087354881F845702968236851F8046B06
S315080046B029601D0614D5DF0744BF43F02003236095
S315080046C01EB9236823F0200323601023B0E723686C
S315080046D043F0200323607823284884F84530E3E72D
S315080046E0590648BFB6B2E6E71546BBE72B68266803
S315080046F0181D6169286035061B6801D5196002E036
S315080047007006FBD51980002315462361BAE72B6886
S3150800471000211A1D2A601D686268284600F0F6FC0A
S3150800472008B1401B606063682361002384F8433046
S31508004730A8E723692A4649464046D0470130ABD008
S3150800474023689B0713D4E068039B9842B8BF1846B2
S31508004750A4E70123324649464046D04701309BD05C
S315080047600135E36803995B1AAB42F2DCEBE70025F7
S3150800477004F11906F5E700BF295B00083A5B000853
S3150800478038B50023054D044608462B60FBF782FF23
S31508004790431C02D12B6803B1236038BDD812002010
S315080047A0F8B50E461446054618B183690BB9FFF7E6
S315080047B0EBFB214B9C422BD16C68A369A360A389B0
S315080047C01A072FD523696BB32369F6B220683746D3
S315080047D0C01A6369834204DC21462846FFF756FB64
S315080047E030BBA3680130013BA36023685A1C2260D2
S315080047F01E706369834204D0A389DB0706D50A2E97
S3150800480004D121462846FFF741FB88B93846F8BD4A
S315080048100A4B9C4201D1AC68CFE7094B9C4208BFC2
S31508004820EC68CAE72146284600F01EF80028CBD0D7
S315080048304FF0FF37EAE700BFD85A0008F85A0008D1
S31508004840B85A000838B50446064D084611460022EF
S315080048502A601A46FEF752FA431C02D12B6803B1A6
S31508004860236038BDD8120020324B70B51D68064645
S315080048700C4625B1AB6913B92846FFF785FB2E4BC5
S315080048809C420FD16C68A389B4F90C2019072CD463
S31508004890DD0611D40923336042F040034FF0FF30A0
S315080048A0A3813EE0254B9C4201D1AC68EBE7244B43
S315080048B09C4208BFEC68E6E7580712D5616B41B120
S315080048C004F14403994202D03046FFF723FC002343
S315080048D06363A38923F02403A38100236360236908
S315080048E02360A38943F00803A38123694BB9A389ED
S315080048F003F42073B3F5007F03D021463046FFF753
S31508004900C1FBA089B4F90C2010F001030AD00023DA
S31508004910A36063695B42A361236943B910F0800011
S31508004920BAD170BD810758BF6369A360F4E7002058
S31508004930F7E700BF24100020D85A0008F85A0008E4
S31508004940B85A000838B50023054D044608462B60BA
S3150800495000F026FA431C02D12B6803B1236038BD48
S31508004960D812002038B50023064D044608461146DD
S315080049702B6000F018FA431C02D12B6803B12360A0
S3150800498038BD00BFD812002038B50023054D0446AF
S3150800499008462B6000F00CFA431C02D12B6803B1C1
S315080049A0236038BDD812002038B50446064D08469F
S315080049B0114600222A601A4600F0FCF9431C02D16F
S315080049C02B6803B1236038BDD8120020014800F0D7
S315080049D09ABA00BF08130020014800F095BA00BF34
S315080049E00813002038B50446064D0846114600222D
S315080049F02A601A4600F0E0F9431C02D12B6803B17D
S31508004A00236038BDD8120020FBF710BCFBF73EBC6C
S31508004A1008B500F015FAFFF7F7FF00F01EFAFFF7E2
S31508004A20F5FFFAE708B5FEF71FF8FDF7F5FFFBF700
S31508004A3043FCBDE80840FEF705B8FBF7E9BC08B536
S31508004A40FEF77CFDFEF768F9BDE8084000F007B8F8
S31508004A507047FBF717BD7047704770477047FBF7FD
S31508004A6081BCFBF7CFBC70477047FEE70020704754
S31508004A704FF4004070474FF47A707047FEE730B540
S31508004A8030B3002A3FD01044830705D010F8013D03
S31508004A908B421DD0013AF7D105460B0443EA016360
S31508004AA00B4343EA0123032A05D82846AA1A90424B
S31508004AB024D100200CE050F8044C5C40A4F10134E9
S31508004AC014F0803F17D010F8014C8C4201D1013800
S31508004AD030BD10F8024C8C4201D10238F8E710F8C4
S31508004AE0034C8C4201D10338F2E710F8044C8C428F
S31508004AF001D10438ECE7013D043AD4E710F8013D4A
S31508004B008B42D4D1E4E71046E2E710B588B00E9C94
S31508004B10009207940D9C024606949DF83040059431
S31508004B200B9C04949DF8284003940024CDE9013495
S31508004B3020460B460121FBF7FBFE08B010BD08B561
S31508004B40FBF752FDBDE808400021FCF7F7BB00293A
S31508004B50CCBF01210021FCF7F1BB02214FF42070E4
S31508004B60FCF778BE10B5FBF72DFD0446FCF728F9CF
S31508004B70C0F102012046FFF7EAFF01210020FCF7F9
S31508004B808BFFFCF70DFFBDE81040FCF72FBDEFF3D8
S31508004B90108072B6704700B962B67047EFF311809D
S31508004BA0302383F31188704780F311887047704764
S31508004BB07047436D0B42FCD1704708B54368DA0766
S31508004BC014D58368DB0702D50369D90707D50A23F5
S31508004BD050218363FFF7EDFF836C9A07FCD101220E
S31508004BE000F500535A6043689B07FCD408BD836CE4
S31508004BF05B06FCD54164704770B5054614460E46FB
S31508004C00FFF7C5FF296881EA040202EA06044C4058
S31508004C102C60BDE87040FFF7BEBF036BDA0702D50C
S31508004C2003695B06F9D4704707B530B9CDE90012B8
S31508004C30FDF744FFDDE9001230B1436823B100688F
S31508004C4003B05DF804EB1847232003B05DF804FBB6
S31508004C5030B51C4685B058B9CDE90012FDF72EFFD0
S31508004C60DDE9001204B903AC20B9232005B030BD34
S31508004C7003B903AC8568002DF7D023460068A8471A
S31508004C80F4E7F8B50E461746054690B9FDF716FF40
S31508004C900446054630463946FFF75CF8AC420646F8
S31508004CA002D02046FDF7FEFE002ED4BF3720002096
S31508004CB0F8BDFDF703FF85420446EBD02846FDF70D
S31508004CC0F1FEE7E70EB403B503AA52F8041B0192F6
S31508004CD0FFF7D7FF02B05DF804EB03B0704710B5D5
S31508004CE00446426C936C5906FCD50023216D1A467E
S31508004CF094F84C00FDF7E2FA0023A16D1A4694F8E1
S31508004D005400FDF7DBFA94F86C30DA0706D5002371
S31508004D10216E1A4694F85C00FDF7D0FA94F86C30C8
S31508004D209B0706D50023A16E1A4694F86400FDF782
S31508004D30C5FA606C0021FCF797FFA06C0021FCF710
S31508004D4029FB002010BD08B5406CFFF750FF002076
S31508004D5008BD10B50468606CC36C5A070CD50422EC
S31508004D6000F50053DA6494F839302BB10023132187
S31508004D7084F84130FFF73BFF606CC36CDB060ED549
S31508004D80102200F50053DA6494F839303BB1002359
S31508004D90132184F84130BDE81040FFF728BF10BD45
S31508004DA000207047FEE74FF4005300204B60704721
S31508004DB0012070470020704707B5002001AB01901D
S31508004DC0FFF746FF0198002808BF4FF0FF3003B0F1
S31508004DD05DF804FB80F83810704790F83800704783
S31508004DE008B50023FDF7E4FF002008BD00210846AA
S31508004DF0FDF7E4BD00F00101830748BF41F0020159
S31508004E000020FDF7A1BD38B5FFF7C8FE044600200F
S31508004E10FDF7C4FD830700F0010548BF45F002050C
S31508004E2000F003010020FDF7ABFD2846FEF7C0FBA6
S31508004E302046BDE83840FFF7B7BE3E20FCF7D6BA95
S31508004E4008B5FFF7EFFDFFF7F8FDFFF7F8FDFFF7E9
S31508004E50FFFDBDE80840FFF7FCBD08B5FFF7FBFD01
S31508004E60FFF7FAFDFFF7F9FDBDE80840FFF7F6BDC5
S31508004E700A44431E914200D1704710B511F8014B00
S31508004E80914203F8014FF9D110BD024403469342FB
S31508004E9000D1704703F8011BF9E770B568224D1E6B
S31508004EA00E46554305F17401FFF7A0F9044640B1D3
S31508004EB0002105F16802C0E900160C30A060FFF772
S31508004EC0E4FF204670BD2DE9F8430646884600F102
S31508004ED048040027D4E90195B9F1010905D52468E4
S31508004EE0002CF7D13846BDE8F883AB89012B07D9E2
S31508004EF0B5F90E30013303D029463046C04707437B
S31508004F006835E9E770477047704770B50E46B1F9DE
S31508004F100E1096B0144600291D4608DAB6F90C306C
S31508004F2000222A601A0610D44FF480630EE06A46FF
S31508004F30FFF718FD0028F1DB019A02F47042A2F58A
S31508004F4000535A425A412A60EEE740230020236064
S31508004F5016B070BD9368013B002B936010B408DA55
S31508004F609469A34201DB0A2903D15DF8044BFFF7D4
S31508004F7017BC1368581C1060084619705DF8044B76
S31508004F807047F8B506460F461446D518AC4201D107
S31508004F90002007E03A4614F8011B3046FFF7DAFF0F
S31508004FA0431CF3D1F8BD2DE9F047164699468A68A1
S31508004FB007460B690C46DDF820809342B8BF1346B6
S31508004FC0336091F843200AB10133336023689906A8
S31508004FD042BF336802333360256815F0060506D1EB
S31508004FE004F1190AE36832689B1AAB4229DC94F883
S31508004FF04320131E226818BF012392062ED404F1FB
S31508005000430249463846C047013021D023681A343E
S3150800501054F80E5C03F0060332680026042B54F895
S31508005020123C08BFAD1A54F80A2C14BF002525EA0D
S31508005030E5759342C4BF9B1AED18B5421AD10020F4
S3150800504008E00123524649463846C047013003D195
S315080050504FF0FF30BDE8F0870135C3E7E1185A1C69
S3150800506030200233224481F8430094F8451082F830
S315080050704310C4E70123224649463846C047013053
S31508005080E6D00136D9E710B50C46B1F90E10FFF790
S31508005090A9FC0028ABBF636DA3891B1823F48053B2
S315080050A0ACBF6365A38110BD2DE9F0411F468B890E
S315080050B005460C46DB05164605D502230022B1F93E
S315080050C00E10FFF771FCA3893246B4F90E10284674
S315080050D023F48053A3813B46BDE8F041FFF7B2BBFA
S315080050E010B50C46B1F90E10FFF75EFC431CA389F8
S315080050F015BF606523F4805343F48053A38118BF1A
S31508005100A38110BDB1F90E10FFF71CBCC9B2024449
S3150800511010B59042034601D1002303E01C78013004
S315080051208C42F6D1184610BDF8B500BFF8BC08BCCD
S315080051309E467047F8B500BFF8BC08BC9E46704747
S315080051405B495D2000496E697469616C6973696EB3
S315080051506720436172726965722050574D206F75DA
S31508005160747075742E2E2E0A0D0A002E2E2F617558
S31508005170746F67656E2F736C5F696F7374726561A0
S315080051806D5F696E69745F6575736172745F696E68
S315080051907374616E6365732E63000000050000007A
S315080051A00000000000C2010000020000001000001C
S315080051B000000000000000000000000000000F00D2
S315080051C03C00015B00000000433A2F55736572737B
S315080051D02F63726169672F446F776E6C6F616473B2
S315080051E02F6765636B6F5F73646B2D643438353472
S315080051F06432666630366138323831363164373073
S3150800520033326566623137333664306465646134D7
S315080052103062312F6765636B6F5F73646B2D64341F
S31508005220383534643266663036613832383136316C
S3150800523064373033326566623137333664306465D5
S315080052406461343062312F706C6174666F726D2FD1
S315080052506472697665722F70776D2F7372632F7318
S315080052606C5F70776D2E6300633A5C757365727355
S315080052705C63726169675C646F776E6C6F61647397
S315080052805C6765636B6F5F73646B2D6434383534A4
S3150800529064326666303661383238313631643730D2
S315080052A03332656662313733366430646564613437
S315080052B03062315C6765636B6F5F73646B2D643452
S315080052C038353464326666303661383238313631CC
S315080052D06437303332656662313733366430646535
S315080052E06461343062315C706C6174666F726D5CD7
S315080052F0656D6C69625C696E635C656D5F74696D2A
S3150800530065722E68001E000003433A2F55736572B6
S31508005310732F63726169672F446F776E6C6F616470
S31508005320732F6765636B6F5F73646B2D64343835F1
S31508005330346432666630366138323831363164372D
S31508005340303332656662313733366430646564619A
S31508005350343062312F6765636B6F5F73646B2D64DE
S315080053603438353464326666303661383238313628
S3150800537031643730333265666231373336643064C8
S31508005380656461343062312F706C6174666F726D5A
S315080053902F656D6C69622F7372632F656D5F636D20
S315080053A0752E6300433A2F55736572732F637261C6
S315080053B069672F446F776E6C6F6164732F676563D7
S315080053C06B6F5F73646B2D6434383534643266668C
S315080053D030366138323831363164373033326566C3
S315080053E06231373336643064656461343062312F34
S315080053F06765636B6F5F73646B2D6434383534642B
S315080054003266663036613832383136316437303391
S3150800541032656662313733366430646564613430C8
S3150800542062312F706C6174666F726D2F656D6C6971
S31508005430622F7372632F656D5F656D752E6300430A
S315080054403A2F55736572732F63726169672F446FBC
S31508005450776E6C6F6164732F6765636B6F5F7364D8
S315080054606B2D6434383534643266663036613832CA
S315080054703831363164373033326566623137333620
S31508005480643064656461343062312F6765636B6FBD
S315080054905F73646B2D64343835346432666630362F
S315080054A061383238313631643730333265666231C5
S315080054B0373336643064656461343062312F706C1A
S315080054C06174666F726D2F656D6C69622F73726396
S315080054D02F656D5F6575736172742E6300633A5C40
S315080054E075736572735C63726169675C646F776E06
S315080054F06C6F6164735C6765636B6F5F73646B2D58
